:100000000C9472000C9493000C9493000C94930045
:100010000C9493000C94B4000C9495000C94D300B1
:100020000C94F2000C9493000C9493000C949300A5
:100030000C9493000C9493000C9493000C949300F4
:100040000C9493000C9493000C9493000C949300E4
:100050000C9493000C9493000C9493000C949300D4
:100060000C9493000C9411010C9493000C94930045
:100070000C9493000C9493000C9493000C949300B4
:100080000C9493000C9493000C9493000C949300A4
:100090000C9493000C9493000C9493000C94930094
:1000A0000C9493000C9493000C9493000C94930084
:1000B0000C9493000C9493000C9493000C94930074
:1000C0000C9493000C9493000C9493000C94930064
:1000D0000C9493000C9493000C9493000C94930054
:1000E0000C94930011241FBECFEFD1E2DEBFCDBF31
:1000F00000E00CBF13E0A0E0B2E0ECEEF3E200E0C1
:100100000BBF02C007900D92A830B107D9F713E0DA
:10011000A8E0B3E001C01D92A73CB107E1F70E943F
:10012000C50B0C94F4110C9400001F920F920FB6A3
:100130000F9211248F939F93DF93CF93CDB7DEB7A8
:10014000F89480910C0390910D03019690930D0308
:1001500080930C037894CF91DF919F918F910F90B2
:100160000FBE0F901F9018951F920F920FB60F920F
:1001700011248F939F93DF93CF93CDB7DEB7F8947D
:1001800080910E0390910F03019690930F0380933B
:100190000E037894CF91DF919F918F910F900FBEB6
:1001A0000F901F9018951F920F920FB60F92112467
:1001B0008F939F93DF93CF93CDB7DEB7F894809161
:1001C00012039091130301969093130380931203EB
:1001D0007894CF91DF919F918F910F900FBE0F90E8
:1001E0001F9018951F920F920FB60F9211248F93A4
:1001F0009F93DF93CF93CDB7DEB7F8948091100330
:1002000090911103019690931103809310037894B9
:10021000CF91DF919F918F910F900FBE0F901F9004
:1002200018951F920F920FB60F9200905B000F92DD
:1002300011242F933F934F935F936F937F938F93EB
:100240009F93AF93BF93EF93FF93DF93CF93CDB77C
:10025000DEB7E6ECF0E080818093C2038091180362
:10026000909119032091C203FC01E455FC4F2083B7
:10027000019690931903809318038091C2038E32E4
:1002800061F40E9463018091AC03853731F481E011
:1002900090E090930B0380930A03CF91DF91FF913D
:1002A000EF91BF91AF919F918F917F916F915F91EE
:1002B0004F913F912F910F9000925B000F900FBED6
:1002C0000F901F901895DF93CF93CDB7DEB72C9783
:1002D0000FB6F894DEBF0FBECDBF1A8219821C8202
:1002E0001B821E821D8218861F821A8619861C8612
:1002F0001B868091AC03853709F087C08D819E8174
:1003000001969E838D831EC089819A819C01220F54
:10031000331FC901880F991F880F991F280F391F94
:100320008D819E81FC01E455FC4F8081882F90E0F7
:10033000C097820F931F9A8389838D819E81019636
:100340009E838D838D819E81FC01E455FC4F8081CD
:100350008C32D1F68D819E8101969E838D831EC045
:100360008B819C819C01220F331FC901880F991F2B
:10037000880F991F280F391F8D819E81FC01E4553C
:10038000FC4F8081882F90E0C097820F931F9C8341
:100390008B838D819E8101969E838D838D819E812D
:1003A000FC01E455FC4F80818E32D1F61092190386
:1003B0001092180389819A8190931B0380931A03EA
:1003C0008B819C8190931D0380931C039AC08F8125
:1003D00098859C01220F331FC901880F991F880F30
:1003E000991F280F391F8D819E81FC01E455FC4F18
:1003F0008081882F90E0C097820F931F98878F830A
:100400008D819E8101969E838D838D819E81FC01CD
:10041000E455FC4F80818C32D1F68D819E8101960E
:100420009E838D831EC089859A859C01220F331F70
:10043000C901880F991F880F991F280F391F8D81B7
:100440009E81FC01E455FC4F8081882F90E0C0978D
:10045000820F931F9A8789878D819E8101969E8343
:100460008D838D819E81FC01E455FC4F80818C320F
:10047000D1F68D819E8101969E838D831EC08B85D2
:100480009C859C01220F331FC901880F991F880F7B
:10049000991F280F391F8D819E81FC01E455FC4F67
:1004A0008081882F90E0C097820F931F9C878B8755
:1004B0008D819E8101969E838D838D819E81FC011D
:1004C000E455FC4F80818E32D1F6109219031092C0
:1004D00018038F8198859093C6038093C5038985FF
:1004E0009A859093C1038093C0038B859C859093DC
:1004F0001F0380931E0381E090E090930903809393
:1005000008032C960FB6F894DEBF0FBECDBFCF9177
:10051000DF910895DF93CF93CDB7DEB7E1E2F0E04E
:100520008FEF8083E2E2F0E01082EDE2F0E088E01D
:100530008083EEE2F0E088E08083EAE0F1E088E3A7
:100540008083EBE0F1E088E38083E7E2F0E08FEF87
:100550008083CF91DF910895DF93CF93CDB7DEB73E
:10056000ADE2B0E0EDE2F0E08081806F8C93AEE22E
:10057000B0E0EEE2F0E08081806F8C93CF91DF916C
:100580000895DF93CF93CDB7DEB7E1ECF0E01082B2
:10059000E0ECF0E01082E2ECF0E086E08083E4EC56
:1005A000F0E087E48083E5ECF0E01082E1ECF0E03D
:1005B00088E98083CF91DF910895DF93CF93CDB702
:1005C000DEB7F894AAE6B0E0EAE6F0E08081826067
:1005D0008C93ADE3B0E0EDE3F0E0808180618C933B
:1005E0007894CF91DF910895DF93CF93CDB7DEB7A5
:1005F000F894AAE6B0E0EAE6F0E0808188608C93A7
:10060000ADE3B0E0EDE3F0E0808180628C9378941C
:10061000CF91DF910895DF93CF93CDB7DEB7F894F4
:10062000AAE6B0E0EAE6F0E0808180688C93ADE372
:10063000B0E0EDE3F0E0808180688C937894CF9116
:10064000DF910895DF93CF93CDB7DEB7F894AAE694
:10065000B0E0EAE6F0E0808180628C93ADE3B0E048
:10066000EDE3F0E0808180648C937894CF91DF910A
:100670000895DF93CF93CDB7DEB7E2E2F0E01082CA
:10068000CF91DF910895DF93CF93CDB7DEB7E2E24C
:10069000F0E084E08083CF91DF910895DF93CF93E2
:1006A000CDB7DEB7E2E2F0E088E08083CF91DF9162
:1006B0000895DF93CF93CDB7DEB7E2E2F0E082E0BA
:1006C0008083CF91DF910895DF93CF93CDB7DEB7CD
:1006D000E2E2F0E081E08083CF91DF910895DF9343
:1006E000CF93CDB7DEB7E2E2F0E080E28083CF9136
:1006F000DF910895DF93CF93CDB7DEB7E2E2F0E06C
:1007000080E18083CF91DF910895DF93CF93CDB7C0
:10071000DEB7E2E2F0E080E88083CF91DF910895D8
:10072000DF93CF93CDB7DEB7E2E2F0E080E48083E1
:10073000CF91DF910895DF93CF93CDB7DEB7629766
:100740000FB6F894DEBF0FBECDBF9C878B877E8728
:100750006D8780E090E0A0E0B0E08F839887A98764
:10076000BA871B821C821D821E821A8219828B8587
:100770009C85CC01A0E0B0E0BC01CD010E944F0FF0
:10078000DC01CB01BC01CD0128EB3EE145E350E4A7
:100790000E94C10DDC01CB018F839887A987BA879E
:1007A0006F81788589859A850E94EB0BDC01CB01EE
:1007B0008B839C83AD83BE838D859E85988B8F872D
:1007C0008F85988982309105D9F08F8598898330FB
:1007D000910534F48F8598898130910561F01EC0B0
:1007E0008F8598898330910581F08F859889843031
:1007F000910581F013C010920F0310920E030EC0EA
:1008000010920D0310920C0309C010921103109264
:10081000100304C010921303109212038D859E855D
:100820009A8B898B89899A8982309105E9F0898927
:100830009A898330910534F489899A8981309105A8
:1008400061F026C089899A8983309105A1F0898950
:100850009A8984309105B1F01BC080910E0390916C
:100860000F039A83898314C080910C0390910D0328
:100870009A8389830DC080911003909111039A830C
:10088000898306C080911203909113039A83898310
:1008900089819A819C0140E050E08B819C81AD81EF
:1008A000BE8182179307A407B50708F0B7CF0E944F
:1008B000390362960FB6F894DEBF0FBECDBFCF915D
:1008C000DF910895DF93CF93CDB7DEB70E948A0200
:1008D0000E94C102F8940E94F4020E94DD020E946C
:1008E0000B030E9422037894CF91DF910895AF9279
:1008F000BF92CF92DF92EF92FF920F931F93DF93FD
:10090000CF93CDB7DEB760970FB6F894DEBF0FBEBA
:10091000CDBF9A8389837C836B832D833E834F83F2
:100920005887E986FA860B871C87AD86BE86CF86F8
:10093000D88A69817A812B813C81C901880F991FEE
:10094000820F931FAC01440F551F440F551FCB015D
:10095000880F991F880F991F9C01220F331F220FA8
:10096000331F220F331F820F931F840F951FFC012B
:10097000E45DFC4F8D819E81AF81B885808391833A
:10098000A283B38369817A812B813C81C901880F5D
:10099000991F820F931FAC01440F551F440F551F21
:1009A000CB01880F991F880F991F9C01220F331FBD
:1009B000220F331F220F331F820F931F840F951FA7
:1009C000FC01E05DFC4F89859A85AB85BC85808301
:1009D0009183A283B38369817A812B813C81C90190
:1009E000880F991F820F931FAC01440F551F440FAE
:1009F000551FCB01880F991F880F991F9C01220F4B
:100A0000331F220F331F220F331F820F931F840FB8
:100A1000951FFC01EC5CFC4F8D859E85AF85B889E8
:100A200080839183A283B38360960FB6F894DEBF70
:100A30000FBECDBFCF91DF911F910F91FF90EF902F
:100A4000DF90CF90BF90AF900895AF92BF92CF92BA
:100A5000DF92EF92FF920F931F93DF93CF93CDB767
:100A6000DEB780E090E060E070E020E030E040E061
:100A700050E00F2EF0E0EF2EF0E0FF2EF8E40F2F05
:100A8000F4E41F2FF02D0F2EFDECAF2EFCE1BF2E56
:100A9000FEE9CF2EF4E4DF2EF02D0E94770481E0F2
:100AA00090E061E070E02DEC3CE444E353E40F2E71
:100AB000FAE9EF2EF9EFFF2EF2E30F2FF4E41F2FE8
:100AC000F02D0F2EF0E0AF2EF0E8BF2EF8E8CF2E7D
:100AD000F4E4DF2EF02D0E94770481E090E062E0E4
:100AE00070E02AE939E945ED53E40F2EFAE9EF2EDB
:100AF000F9E9FF2EF5ED0F2FF3E41F2FF02D0F2E48
:100B0000F0E0AF2EF0E4BF2EF3E8CF2EF4E4DF2EBA
:100B1000F02D0E94770481E090E063E070E02AE924
:100B200039EF42E354E40F2EFDECEF2EFCE4FF2EF0
:100B3000F4E30F2FF3E41F2FF02D0F2EF0E0AF2E74
:100B4000F0E8BF2EF8E8CF2EF4E4DF2EF02D0E945F
:100B5000770482E090E061E070E020E030E842E27B
:100B600054E40F2EFAE9EF2EF9E7FF2EFBE40F2FE6
:100B7000F4E41F2FF02D0F2EF0E0AF2EF0EABF2E81
:100B8000FAE1CF2EF4E4DF2EF02D0E94770482E00C
:100B900090E063E070E02AE939E74BE454E40F2E7B
:100BA000F0E0EF2EF0E8FF2EF2E20F2FF4E41F2F1B
:100BB000F02D0F2EF0E0AF2EF0EABF2EFAE1CF2E8F
:100BC000F4E4DF2EF02D0E94770483E090E062E0F1
:100BD00070E023E333E74CE854E40F2EF3E3EF2E09
:100BE000F3E7FF2EFCE80F2FF4E41F2FF02D0F2E5C
:100BF000F0E0AF2EF0E0BF2EF6E1CF2EF3E4DF2ED3
:100C0000F02D0E947704CF91DF911F910F91FF90FB
:100C1000EF90DF90CF90BF90AF900895DF93CF9388
:100C2000CDB7DEB7CA54D0400FB6F894DEBF0FBEC2
:100C3000CDBF9AAF89AF7CAF6BAF5EAF4DAF1886BB
:100C40001F8289AD9AAD9A87898781E090E09C8761
:100C50008B878BAD9CAD9E878D8782E090E0988BD3
:100C60008F878F8198859A8B898B83E090E09C8B0E
:100C70008B8B8DAD9EAD9E8B8D8B84E090E0988F9D
:100C80008F8B1E821D821C821B821A821982ADC02C
:100C900089819A819C01220F331F220F331FCE01BD
:100CA0000196820F931FFC013896808191810097F5
:100CB00009F496C089819A819C01220F331F220F6B
:100CC000331FCE010196820F931FFC01389680815D
:100CD0009181181619060CF042C06D817E818981C0
:100CE0009A819C01220F331F220F331FCE010196E0
:100CF000820F931FFC013896408151819B01220F86
:100D0000331F220F331FCE010196820F931FFC0168
:100D10007896518340836D817E8189819A819C017F
:100D2000220F331F220F331FCE010196820F931F14
:100D3000FC013A96408151819B01220F331F220F03
:100D4000331FCE010196820F931FFC017A965183C7
:100D500040838D819E8101969E838D8341C06B81EE
:100D60007C8189819A819C01220F331F220F331FBE
:100D7000CE010196820F931FFC013896408151816C
:100D80009B01220F331F220F331FCE010196820FCA
:100D9000931FFC01B896518340836B817C818981CC
:100DA0009A819C01220F331F220F331FCE0101961F
:100DB000820F931FFC013A96408151819B01220FC3
:100DC000331F220F331FCE010196820F931FFC01A8
:100DD000BA96518340838B819C8101969C838B833F
:100DE00089819A8101969A83898389819A81843045
:100DF00091050CF44DCF1A82198295C089819A8190
:100E00009C01220F331F220F331FCE010196820F48
:100E1000931FFC017A96808191812B969FAF8EAFB4
:100E20002B972B968EAD9FAD2B9782309105A9F114
:100E30002B968EAD9FAD2B978330910544F42B9666
:100E40008EAD9FAD2B978130910589F067C02B96B1
:100E50008EAD9FAD2B9783309105A9F12B968EAD6A
:100E60009FAD2B978430910509F443C057C00E9471
:100E7000590389819A819C01220F331F220F331F4E
:100E8000CE010196820F931FFC017896808191819B
:100E900061E070E00E949B0341C00E94430389818E
:100EA0009A819C01220F331F220F331FCE0101961E
:100EB000820F931FFC0178968081918162E070E03F
:100EC0000E949B032BC00E946F0389819A819C0121
:100ED000220F331F220F331FCE010196820F931F63
:100EE000FC0178968081918163E070E00E949B0311
:100EF00015C00E94850389819A819C01220F331FAE
:100F0000220F331FCE010196820F931FFC017896AA
:100F10008081918164E070E00E949B0389819A81C5
:100F200001969A83898329813A818D819E81281730
:100F300039070CF463CF1A821982FBC089819A8128
:100F40009C01220F331F220F331FCE010196820F07
:100F5000931FFC01BA968081918129969FAF8EAF35
:100F6000299729968EAD9FAD29978230910509F476
:100F70004FC029968EAD9FAD29978330910544F4DB
:100F800029968EAD9FAD29978130910591F0CCC007
:100F900029968EAD9FAD29978330910509F467C0DE
:100FA00029968EAD9FAD29978430910509F48EC0A6
:100FB000BBC00E94640389819A819C01220F331F68
:100FC000220F331FCE010196820F931FFC01B896AA
:100FD0008081918127969FAF8EAF279727968EAD00
:100FE0009FAD279799235CF427968EAD9FAD2797E9
:100FF000909581959F4F27969FAF8EAF2797279605
:101000008EAD9FAD279761E070E00E949B038CC07E
:101010000E944E0389819A819C01220F331F220F67
:10102000331FCE010196820F931FFC01B896808179
:10103000918125969FAF8EAF259725968EAD9FAD5A
:10104000259799235CF425968EAD9FAD25979095B5
:1010500081959F4F25969FAF8EAF259725968EAD94
:101060009FAD259762E070E00E949B035DC00E94E7
:101070007A0389819A819C01220F331F220F331F2B
:10108000CE010196820F931FFC01B8968081918159
:1010900023969FAF8EAF239723968EAD9FAD239758
:1010A00099235CF423968EAD9FAD239790958195FF
:1010B0009F4F23969FAF8EAF239723968EAD9FAD04
:1010C000239763E070E00E949B032EC00E94900370
:1010D00089819A819C01220F331F220F331FCE0179
:1010E0000196820F931FFC01B89680819181219611
:1010F0009FAF8EAF219721968EAD9FAD21979923FB
:101100005CF421968EAD9FAD2197909581959F4F70
:1011100021969FAF8EAF219721968EAD9FAD2197DF
:1011200064E070E00E949B0389819A8101969A8312
:10113000898329813A818B819C81281739070CF496
:10114000FDCEC65BDF4F0FB6F894DEBF0FBECDBF3E
:10115000CF91DF910895AF92BF92CF92DF92EF923D
:10116000FF920F931F93DF93CF93CDB7DEB76097B6
:101170000FB6F894DEBF0FBECDBF98878F837A87F6
:1011800069876F81788529853A85C901880F991FFC
:10119000820F931FAC01440F551F440F551FCB0105
:1011A000880F991F880F991F9C01220F331F220F50
:1011B000331F220F331F820F931F840F951FFC01D3
:1011C000E45DFC4FE080F1800281138160911403A3
:1011D000709115032091160330911703C901880FF0
:1011E000991F820F931FAC01440F551F440F551FC9
:1011F000CB01880F991F880F991F9C01220F331F65
:10120000220F331F220F331F820F931F840F951F4E
:10121000FC01E45DFC4F2081318142815381C80192
:10122000B7010E94630DDC01CB01BC01CD010E941E
:10123000FB0EDC01CB019E838D836F817885298530
:101240003A85C901880F991F820F931FAC01440F83
:10125000551F440F551FCB01880F991F880F991FE9
:101260009C01220F331F220F331F220F331F820FC7
:10127000931F840F951FFC01E05DFC4FE080F1801F
:10128000028113816091140370911503209116035C
:1012900030911703C901880F991F820F931FAC016A
:1012A000440F551F440F551FCB01880F991F880FFE
:1012B000991F9C01220F331F220F331F220F331F50
:1012C000820F931F840F951FFC01E05DFC4F20816E
:1012D000318142815381C801B7010E94630DDC0155
:1012E000CB01BC01CD010E94FB0EDC01CB019C8334
:1012F0008B836F81788529853A85C901880F991F6D
:10130000820F931FAC01440F551F440F551FCB0193
:10131000880F991F880F991F9C01220F331F220FDE
:10132000331F220F331F820F931F840F951FFC0161
:10133000EC5CFC4FE080F18002811381609114032A
:10134000709115032091160330911703C901880F7E
:10135000991F820F931FAC01440F551F440F551F57
:10136000CB01880F991F880F991F9C01220F331FF3
:10137000220F331F220F331F820F931F840F951FDD
:10138000FC01EC5CFC4F2081318142815381C8011A
:10139000B7010E94630DDC01CB01BC01CD010E94AD
:1013A000FB0EDC01CB019A8389838D819E812B8189
:1013B0003C8149815A81B9010E940E06E6ECF0E0B9
:1013C00082E780831092090310920803809108033A
:1013D000909109030097D1F38091C5039091C603C2
:1013E000AA2797FDA095BA2FBC01CD010E949D0EA2
:1013F0007B018C016F81788529853A85C901880F29
:10140000991F820F931FAC01440F551F440F551FA6
:10141000CB01880F991F880F991F9C01220F331F42
:10142000220F331F220F331F820F931F840F951F2C
:10143000FC01E45DFC4F2081318142815381C80170
:10144000B7010E94630DDC01CB01BC01CD010E94FC
:10145000FB0EDC01CB01988B8F878F8598899923B0
:101460003CF48F859889909581959F4F988B8F87B5
:101470008F859889833391050CF0A4C08091C003B7
:101480009091C103AA2797FDA095BA2FBC01CD0169
:101490000E949D0E7B018C016F81788529853A859C
:1014A000C901880F991F820F931FAC01440F551F6C
:1014B000440F551FCB01880F991F880F991F9C015E
:1014C000220F331F220F331F220F331F820F931F50
:1014D000840F951FFC01E05DFC4F2081318142812A
:1014E0005381C801B7010E94630DDC01CB01BC012F
:1014F000CD010E94FB0EDC01CB019E878D878D857F
:101500009E8599233CF48D859E85909581959F4F6E
:101510009E878D878D859E85833391050CF052C003
:1015200080911E0390911F03AA2797FDA095BA2FC3
:10153000BC01CD010E949D0E7B018C016F817885DD
:1015400029853A85C901880F991F820F931FAC0125
:10155000440F551F440F551FCB01880F991F880F4B
:10156000991F9C01220F331F220F331F220F331F9D
:10157000820F931F840F951FFC01EC5CFC4F2081B0
:10158000318142815381C801B7010E94630DDC01A2
:10159000CB01BC01CD010E94FB0EDC01CB019C877D
:1015A0008B878B859C8599233CF48B859C859095B6
:1015B00081959F4F9C878B878B859C858333910575
:1015C0000CF4C6C06F81788529853A85C901880FDA
:1015D000991F820F931FAC01440F551F440F551FD5
:1015E000CB01880F991F880F991F9C01220F331F71
:1015F000220F331F220F331F820F931F840F951F5B
:10160000FC01E45DFC4FE080F18002811381809158
:10161000C5039091C603AA2797FDA095BA2FBC01D8
:10162000CD010E949D0E9B01AC01C801B7010E9433
:10163000630DDC01CB01BC01CD010E94FB0EDC017E
:10164000CB016C016F81788529853A85C901880FA6
:10165000991F820F931FAC01440F551F440F551F54
:10166000CB01880F991F880F991F9C01220F331FF0
:10167000220F331F220F331F820F931F840F951FDA
:10168000FC01E05DFC4FE080F180028113818091DC
:10169000C0039091C103AA2797FDA095BA2FBC0162
:1016A000CD010E949D0E9B01AC01C801B7010E94B3
:1016B000630DDC01CB01BC01CD010E94FB0EDC01FE
:1016C000CB015C016F81788529853A85C901880F36
:1016D000991F820F931FAC01440F551F440F551FD4
:1016E000CB01880F991F880F991F9C01220F331F70
:1016F000220F331F220F331F820F931F840F951F5A
:10170000FC01EC5CFC4FE080F18002811381809150
:101710001E0390911F03AA2797FDA095BA2FBC0125
:10172000CD010E949D0E9B01AC01C801B7010E9432
:10173000630DDC01CB01BC01CD010E94FB0EDC017D
:10174000CB019C01C601B501A9010E940E0636CE4F
:101750008F819885909315038093140389859A85CA
:10176000909317038093160360960FB6F894DEBF2C
:101770000FBECDBFCF91DF911F910F91FF90EF90E2
:10178000DF90CF90BF90AF900895DF93CF93CDB708
:10179000DEB70E9462040E94250510921503109284
:1017A0001403109217031092160310920B03109259
:1017B0000A0380910A0390910B030097D1F3809163
:1017C0001A0390911B0320911C0330911D03B90152
:1017D0000E94AB08EACFEF92FF920F931F937B0119
:1017E0008C0120E030E040E05FE40E946D0E882331
:1017F0008CF0C801B70120E030E040E05FE40E94D7
:10180000630D0E94FB0E9B01AC0120503040404014
:10181000504806C0C801B7010E94FB0E9B01AC01F5
:10182000B901CA011F910F91FF90EF900895A0E0B8
:10183000B0E0EDE1FCE00C94BD11DC012B01FA01FC
:101840009C91923008F439C1EB018881823008F410
:1018500033C1943069F4843009F02FC111969C9102
:1018600011978981981709F428C1A0E0B2E025C139
:10187000843009F421C18230A9F4923009F01DC1ED
:101880009A01AD0188E0EA010990AE01E9010992EF
:101890009E018150C1F7E201898111969C918923B3
:1018A000818308C1923009F407C112962D903C90B3
:1018B0001397EB018A819B811496AD90BD90CD90DA
:1018C000DC901797EC80FD800E811F819101281B11
:1018D000390BB90137FF04C066277727621B730BEA
:1018E000603271050CF061C0121613066CF53701F9
:1018F0004801062E04C096948794779467940A94BE
:10190000D2F721E030E040E050E004C0220F331F66
:10191000441F551F6A95D2F7215030404040504037
:101920002E213F2140235123211531054105510529
:1019300021F021E030E040E050E079018A01E62822
:10194000F728082919293CC0232BD1F1260E371E70
:1019500035014601062E04C09694879477946794C7
:101960000A94D2F721E030E040E050E004C0220FBA
:10197000331F441F551F6A95D2F721503040404015
:1019800050402A213B214C215D2121153105410583
:10199000510521F021E030E040E050E059016A01BA
:1019A000A628B728C828D9280BC0821593052CF083
:1019B0001C01AA24BB24650103C0EE24FF24870177
:1019C00011969C91D20111968C91981709F445C0FB
:1019D000992339F0A80197012A193B094C095D099F
:1019E00006C0A60195012E193F09400B510B57FD6A
:1019F00008C0118233822282248335834683578331
:101A00001DC081E081833382228288279927DC01EF
:101A1000821B930BA40BB50B84839583A683B7839A
:101A20000DC0220F331F441F551F24833583468367
:101A300057838281938101979383828324813581A7
:101A400046815781DA01C9010197A109B1098F5F68
:101A50009F4FAF4FBF4328F30BC091833382228245
:101A6000EA0CFB1C0C1D1D1DE482F5820683178306
:101A700083E08083248135814681578157FF1AC0D6
:101A8000C901AA2797FDA095BA2F81709070A07008
:101A9000B0705695479537952795822B932BA42B9D
:101AA000B52B84839583A683B78382819381019626
:101AB00093838283DF0101C0D201CD01CDB7DEB7B0
:101AC000E2E10C94D911A0E2B0E0E9E6FDE00C946B
:101AD000C91169837A838B839C832D833E834F83D3
:101AE0005887E9E0EE2EF12CEC0EFD1ECE0101969A
:101AF000B7010E94EC108E010F5E1F4FCE010596BC
:101B0000B8010E94EC108A8991E089278A8BC7016D
:101B1000B801AE01475E5F4F0E94170C0E9417107C
:101B2000A096E6E00C94E511A0E2B0E0EAE9FDE061
:101B30000C94C91169837A838B839C832D833E83A4
:101B40004F835887F9E0EF2EF12CEC0EFD1ECE01ED
:101B50000196B7010E94EC108E010F5E1F4FCE015F
:101B60000596B8010E94EC10C701B801AE01475EAE
:101B70005F4F0E94170C0E941710A096E6E00C948D
:101B8000E511A8E1B0E0E7ECFDE00C94C511698334
:101B90007A838B839C832D833E834F835887B9E060
:101BA000EB2EF12CEC0EFD1ECE010196B7010E942A
:101BB000EC108E010F5E1F4FCE010596B8010E94FA
:101BC000EC102985223008F47EC03989323010F4B7
:101BD000B8017CC08A859A8989278A87243011F0C8
:101BE000223031F4231709F06EC060E072E06EC05D
:101BF000343039F41D861E861F86188A1C861B8683
:101C000004C0323021F484E08987B7015FC02B859E
:101C10003C858B899C89281B390B3C872B87ED845D
:101C2000FE840F851889AD88BE88CF88D88CEA14C9
:101C3000FB040C051D0540F4EE0CFF1C001F111FDA
:101C4000215030403C872B8720E030E040E050E0DE
:101C500080E090E0A0E0B0E460E070E0EA14FB0413
:101C60000C051D0540F0282B392B4A2B5B2BEA185D
:101C7000FB080C091D09B695A79597958795EE0C5D
:101C8000FF1C001F111F6F5F7F4F6F31710531F710
:101C9000DA01C9018F779070A070B070803491051F
:101CA000A105B10561F427FD0AC0E114F1040105A5
:101CB000110529F0205C3F4F4F4F5F4F20782D8753
:101CC0003E874F87588BBE01675F7F4FCB010E94D5
:101CD00017106896EAE00C94E111A8E1B0E0E3E7A0
:101CE000FEE00C94C91169837A838B839C832D83D6
:101CF0003E834F83588789E0E82EF12CEC0EFD1EC1
:101D0000CE010196B7010E94EC108E010F5E1F4FAD
:101D1000CE010596B8010E94EC108985823040F012
:101D20008989823028F0C701B8010E94641101C07E
:101D30008FEF6896E6E00C94E511A8E0B0E0E3EAE6
:101D4000FEE00C94C6119B01AC0183E08983DA01AB
:101D5000C9018827B7FD83959927AA27BB27B82EE5
:101D6000211531054105510519F482E089833AC0F6
:101D70008823A9F0203080E0380780E0480780E819
:101D8000580729F460E070E080E09FEC30C0EE245A
:101D9000FF248701E21AF30A040B150B02C0790134
:101DA0008A018EE1C82ED12CDC82CB82ED82FE82AC
:101DB0000F831887C801B7010E94C80F0197181632
:101DC000190684F4082E04C0EE0CFF1C001F111F1E
:101DD0000A94D2F7ED82FE820F831887C81AD90AB7
:101DE000DC82CB82BA82CE0101960E94171028961F
:101DF000E9E00C94E211ACE0B0E0E1E0FFE00C942B
:101E0000CD1169837A838B839C83CE010196BE01B9
:101E10006B5F7F4F0E94EC108D81823061F18230C8
:101E200050F1843021F48E81882351F12EC02F810E
:101E3000388537FD20C06E812F3131051CF06623B7
:101E4000F9F023C08EE190E0821B930B29853A853F
:101E50004B855C8504C056954795379527958A959F
:101E6000D2F76623B1F050954095309521953F4FBC
:101E70004F4F5F4F0EC020E030E040E050E009C01F
:101E80002FEF3FEF4FEF5FE704C020E030E040E08E
:101E900050E8B901CA012C96E2E00C94E911A8E0DF
:101EA000B0E0E5E5FFE00C94C5117B018C01611504
:101EB00071058105910519F482E0898360C083E092
:101EC00089838EE1C82ED12CDC82CB82ED82FE820A
:101ED0000F831887C801B7010E94C80FFC01319712
:101EE000F7FF3BC0222733272E1B3F0B570168010A
:101EF000022E04C0D694C794B794A7940A94D2F73C
:101F000040E050E060E070E081E090E0A0E0B0E010
:101F100004C0880F991FAA1FBB1F2A95D2F70197EB
:101F2000A109B1098E219F21A023B1230097A1050A
:101F3000B10521F041E050E060E070E04A295B2902
:101F40006C297D294D835E836F8378878EE190E0D5
:101F50008E1B9F0B9C838B8312C0309781F00E2EBB
:101F600004C0EE0CFF1C001F111F0A94D2F7ED8273
:101F7000FE820F831887CE1ADF0ADC82CB821A8298
:101F8000CE0101960E9417102896EAE00C94E11108
:101F9000EF92FF920F931F937B018C0180E0E81674
:101FA00080E0F80681E0080780E0180788F48FEFEA
:101FB000E816F1040105110531F028F088E090E001
:101FC000A0E0B0E017C080E090E0A0E0B0E012C078
:101FD00080E0E81680E0F80680E0080781E0180756
:101FE00028F088E190E0A0E0B0E004C080E190E05B
:101FF000A0E0B0E020E230E040E050E0281B390BE8
:102000004A0B5B0B04C016950795F794E7948A95E5
:10201000D2F7F701E85FFD4F8081281B31094109A4
:102020005109C9011F910F91FF90EF900895DF9220
:10203000EF92FF920F931F93FC01E480F5800681DD
:102040001781D1808081823048F480E090E0A0E167
:10205000B0E0E82AF92A0A2B1B2BA5C0843009F42A
:102060009FC0823021F4EE24FF24870105C0E114D3
:10207000F1040105110519F4E0E0F0E096C0628179
:1020800073819FEF623879070CF05BC022E83FEF65
:10209000261B370B2A3131052CF020E030E040E0E0
:1020A00050E02AC0B801A701022E04C076956795BA
:1020B000579547950A94D2F781E090E0A0E0B0E010
:1020C00004C0880F991FAA1FBB1F2A95D2F701973A
:1020D000A109B1098E219F21A023B1230097A10559
:1020E000B10521F081E090E0A0E0B0E09A01AB0101
:1020F000282B392B4A2B5B2BDA01C9018F77907083
:10210000A070B07080349105A105B10539F427FFA6
:1021100009C0205C3F4F4F4F5F4F04C0215C3F4FD1
:102120004F4F5F4FE0E0F0E02030A0E03A07A0E042
:102130004A07A0E45A0710F0E1E0F0E079018A01D3
:1021400027C06038710564F5FB01E158FF4FD801E5
:10215000C7018F779070A070B07080349105A10591
:10216000B10539F4E7FE0DC080E490E0A0E0B0E0F6
:1021700004C08FE390E0A0E0B0E0E80EF91E0A1F73
:102180001B1F17FF05C016950795F794E794319626
:1021900087E016950795F794E7948A95D1F705C0DF
:1021A000EE24FF248701EFEFF0E06E2F679566279E
:1021B0006795902F9F77D794DD24D7948E2F86959F
:1021C000492F462B582F5D29B701CA011F910F9146
:1021D000FF90EF90DF900895FC01DB014081518179
:1021E0002281622F6F7770E0221F2227221F9381A6
:1021F000892F880F822B282F30E0991F9927991F4C
:1022000011969C93119721153105A9F5411551059A
:102210006105710511F482E037C082E89FEF1396E3
:102220009C938E9312979A01AB0167E0220F331FA4
:10223000441F551F6A95D1F783E08C930DC0220F80
:10224000331F441F551F12968D919C911397019730
:1022500013969C938E931297203080E0380780E08D
:10226000480780E4580758F314962D933D934D93F7
:102270005C93179708952F3F310579F44115510567
:102280006105710519F484E08C93089564FF03C01F
:1022900081E08C9312C01C9210C02F5730401396CF
:1022A0003C932E93129783E08C9387E0440F551F45
:1022B000661F771F8A95D1F7706414964D935D93CE
:1022C0006D937C93179708951F93DC01FB019C91FC
:1022D000923008F447C08081823008F443C09430C3
:1022E00051F411961C91843099F58181682F70E02A
:1022F000611B71093FC0843021F0923031F482308B
:10230000B9F18181882389F12DC011961C91119713
:102310008230F1F081811817D9F412962D913C91F9
:102320001397828193818217930794F028173907B6
:10233000BCF014968D919D910D90BC91A02D24819F
:10234000358146815781281739074A075B0718F4FA
:10235000112341F00AC082179307A407B50740F480
:10236000112319F061E070E005C06FEF7FEF02C04C
:1023700060E070E0CB011F9108952F923F924F9241
:102380005F926F927F928F929F92AF92BF92CF9205
:10239000DF92EF92FF920F931F93CF93DF93CDB70E
:1023A000DEB7CA1BDB0B0FB6F894DEBF0FBECDBF86
:1023B00019942A88398848885F846E847D848C8447
:1023C0009B84AA84B984C884DF80EE80FD800C8160
:1023D0001B81AA81B981CE0FD11D0FB6F894DEBF43
:0C23E0000FBECDBFED010895F894FFCFB3
:1023EC0000000000000000000001020203030303D0
:1023FC000404040404040404050505050505050589
:10240C000505050505050505060606060606060668
:10241C000606060606060606060606060606060650
:10242C000606060606060606070707070707070738
:10243C000707070707070707070707070707070720
:10244C000707070707070707070707070707070710
:10245C000707070707070707070707070707070700
:10246C0007070707070707070808080808080808E8
:10247C0008080808080808080808080808080808D0
:10248C0008080808080808080808080808080808C0
:10249C0008080808080808080808080808080808B0
:1024AC0008080808080808080808080808080808A0
:1024BC000808080808080808080808080808080890
:1024CC000808080808080808080808080808080880
:1024DC000808080808080808080808080808080870
:0824EC000808080808080808A8
:00000001FF
